{
  "contractName": "ParkingDApp",
  "abi": [
    {
      "inputs": [],
      "stateMutability": "nonpayable",
      "type": "constructor"
    },
    {
      "inputs": [
        {
          "internalType": "uint256",
          "name": "cost",
          "type": "uint256"
        },
        {
          "internalType": "string",
          "name": "lat",
          "type": "string"
        },
        {
          "internalType": "string",
          "name": "long",
          "type": "string"
        },
        {
          "internalType": "string",
          "name": "locAddress",
          "type": "string"
        },
        {
          "internalType": "uint256",
          "name": "count",
          "type": "uint256"
        },
        {
          "internalType": "string",
          "name": "UIDNo",
          "type": "string"
        },
        {
          "internalType": "string",
          "name": "pass",
          "type": "string"
        }
      ],
      "name": "registerNewParkingSpot",
      "outputs": [],
      "stateMutability": "nonpayable",
      "type": "function"
    },
    {
      "inputs": [
        {
          "internalType": "string",
          "name": "carNumber",
          "type": "string"
        },
        {
          "internalType": "string",
          "name": "mobile",
          "type": "string"
        },
        {
          "internalType": "string",
          "name": "lat",
          "type": "string"
        },
        {
          "internalType": "string",
          "name": "long",
          "type": "string"
        },
        {
          "internalType": "string",
          "name": "pass",
          "type": "string"
        }
      ],
      "name": "registerNewUser",
      "outputs": [],
      "stateMutability": "nonpayable",
      "type": "function"
    },
    {
      "inputs": [
        {
          "internalType": "string",
          "name": "ParkingId",
          "type": "string"
        },
        {
          "internalType": "uint256",
          "name": "time",
          "type": "uint256"
        }
      ],
      "name": "bookParkingSpot",
      "outputs": [],
      "stateMutability": "nonpayable",
      "type": "function"
    },
    {
      "inputs": [
        {
          "internalType": "string",
          "name": "ParkingId",
          "type": "string"
        },
        {
          "internalType": "uint256",
          "name": "time",
          "type": "uint256"
        }
      ],
      "name": "endBooking",
      "outputs": [],
      "stateMutability": "nonpayable",
      "type": "function"
    },
    {
      "inputs": [],
      "name": "checkAlreadyRegisteredParkingSpot",
      "outputs": [
        {
          "internalType": "bool",
          "name": "",
          "type": "bool"
        }
      ],
      "stateMutability": "view",
      "type": "function",
      "constant": true
    },
    {
      "inputs": [],
      "name": "getSpotOwnerCred",
      "outputs": [
        {
          "internalType": "string",
          "name": "",
          "type": "string"
        }
      ],
      "stateMutability": "view",
      "type": "function",
      "constant": true
    },
    {
      "inputs": [],
      "name": "checkAlreadyRegisteredUser",
      "outputs": [
        {
          "internalType": "bool",
          "name": "",
          "type": "bool"
        }
      ],
      "stateMutability": "view",
      "type": "function",
      "constant": true
    },
    {
      "inputs": [
        {
          "internalType": "address",
          "name": "owner",
          "type": "address"
        },
        {
          "internalType": "string",
          "name": "password",
          "type": "string"
        }
      ],
      "name": "signInParkingSpot",
      "outputs": [
        {
          "internalType": "bool",
          "name": "",
          "type": "bool"
        }
      ],
      "stateMutability": "view",
      "type": "function",
      "constant": true
    },
    {
      "inputs": [],
      "name": "getUserCred",
      "outputs": [
        {
          "internalType": "string",
          "name": "",
          "type": "string"
        }
      ],
      "stateMutability": "view",
      "type": "function",
      "constant": true
    },
    {
      "inputs": [],
      "name": "UserData",
      "outputs": [
        {
          "internalType": "string",
          "name": "",
          "type": "string"
        }
      ],
      "stateMutability": "view",
      "type": "function",
      "constant": true
    },
    {
      "inputs": [
        {
          "internalType": "string",
          "name": "id",
          "type": "string"
        }
      ],
      "name": "spotData",
      "outputs": [
        {
          "internalType": "string",
          "name": "",
          "type": "string"
        }
      ],
      "stateMutability": "view",
      "type": "function",
      "constant": true
    },
    {
      "inputs": [
        {
          "internalType": "address",
          "name": "owner",
          "type": "address"
        },
        {
          "internalType": "string",
          "name": "password",
          "type": "string"
        }
      ],
      "name": "signInUser",
      "outputs": [
        {
          "internalType": "bool",
          "name": "",
          "type": "bool"
        }
      ],
      "stateMutability": "view",
      "type": "function",
      "constant": true
    },
    {
      "inputs": [],
      "name": "getParkingSpotsCount",
      "outputs": [
        {
          "internalType": "uint256",
          "name": "",
          "type": "uint256"
        }
      ],
      "stateMutability": "view",
      "type": "function",
      "constant": true
    },
    {
      "inputs": [
        {
          "internalType": "uint256",
          "name": "idx",
          "type": "uint256"
        }
      ],
      "name": "getLocations",
      "outputs": [
        {
          "components": [
            {
              "internalType": "address",
              "name": "owner",
              "type": "address"
            },
            {
              "internalType": "uint256",
              "name": "ratePerHour",
              "type": "uint256"
            },
            {
              "components": [
                {
                  "internalType": "string",
                  "name": "lattitude",
                  "type": "string"
                },
                {
                  "internalType": "string",
                  "name": "longitude",
                  "type": "string"
                }
              ],
              "internalType": "struct ParkingDApp.LocationCoordinates",
              "name": "coordinates",
              "type": "tuple"
            },
            {
              "internalType": "string",
              "name": "locationAddress",
              "type": "string"
            },
            {
              "internalType": "uint256",
              "name": "availabileSpots",
              "type": "uint256"
            },
            {
              "internalType": "string",
              "name": "parkingSpotUniqueId",
              "type": "string"
            },
            {
              "internalType": "string",
              "name": "password",
              "type": "string"
            },
            {
              "internalType": "bool",
              "name": "isAvailable",
              "type": "bool"
            }
          ],
          "internalType": "struct ParkingDApp.ParkingSpot",
          "name": "",
          "type": "tuple"
        }
      ],
      "stateMutability": "view",
      "type": "function",
      "constant": true
    },
    {
      "inputs": [],
      "name": "deleteParkingSpot",
      "outputs": [],
      "stateMutability": "nonpayable",
      "type": "function"
    }
  ],
  "bytecode": "0x608060405234801561001057600080fd5b50600a6000819055506124cd806100286000396000f3fe608060405234801561001057600080fd5b50600436106100f55760003560e01c80634873ca4811610097578063a9db56e311610066578063a9db56e314610260578063cb89e72d14610290578063d919d07d146102ae578063ee71a89b146102ca576100f5565b80634873ca48146101da57806358c530ce1461020a5780637ae5e9181461023a57806393d92b0714610256576100f5565b806323dae5b9116100d357806323dae5b91461015057806331f753d71461016e578063330d20b01461018c5780633b360165146101bc576100f5565b80630428f599146100fa5780630c4f38d81461011857806317e4748a14610134575b600080fd5b6101026102e8565b60405161010f9190611768565b60405180910390f35b610132600480360381019061012d9190611909565b6102f5565b005b61014e60048036038101906101499190611a37565b610502565b005b610158610653565b6040516101659190611aae565b60405180910390f35b6101766106bc565b6040516101839190611b48565b60405180910390f35b6101a660048036038101906101a19190611bc8565b61083a565b6040516101b39190611aae565b60405180910390f35b6101c46109b8565b6040516101d19190611b48565b60405180910390f35b6101f460048036038101906101ef9190611bc8565b610a8a565b6040516102019190611aae565b60405180910390f35b610224600480360381019061021f9190611c24565b610b9e565b6040516102319190611b48565b60405180910390f35b610254600480360381019061024f9190611a37565b610c54565b005b61025e610dd9565b005b61027a60048036038101906102759190611c6d565b610e53565b6040516102879190611e1a565b60405180910390f35b61029861143a565b6040516102a59190611aae565b60405180910390f35b6102c860048036038101906102c39190611e3c565b6114a0565b005b6102d2611600565b6040516102df9190611b48565b60405180910390f35b6000600580549050905090565b60006040518061010001604052803373ffffffffffffffffffffffffffffffffffffffff16815260200189815260200160405180604001604052808a815260200189815250815260200186815260200185815260200184815260200183815260200160011515815250905082600160003373ffffffffffffffffffffffffffffffffffffffff1673ffffffffffffffffffffffffffffffffffffffff16815260200190815260200160002090816103ac919061214f565b50806002846040516103be919061225d565b908152602001604051809103902060008201518160000160006101000a81548173ffffffffffffffffffffffffffffffffffffffff021916908373ffffffffffffffffffffffffffffffffffffffff16021790555060208201518160010155604082015181600201600082015181600001908161043b919061214f565b506020820151816001019081610451919061214f565b5050506060820151816004019081610469919061214f565b506080820151816005015560a0820151816006019081610489919061214f565b5060c082015181600701908161049f919061214f565b5060e08201518160080160006101000a81548160ff0219169083151502179055509050506005839080600181540180825580915050600190039060005260206000200160009091909190915090816104f7919061214f565b505050505050505050565b3373ffffffffffffffffffffffffffffffffffffffff16600360003373ffffffffffffffffffffffffffffffffffffffff1673ffffffffffffffffffffffffffffffffffffffff16815260200190815260200160002060000160009054906101000a900473ffffffffffffffffffffffffffffffffffffffff1673ffffffffffffffffffffffffffffffffffffffff161461059c57600080fd5b6002826040516105ac919061225d565b908152602001604051809103902060050160008154809291906105ce906122a3565b91905055506004826040516105e3919061225d565b9081526020016040518091039020600082815260200190815260200160002060003373ffffffffffffffffffffffffffffffffffffffff1673ffffffffffffffffffffffffffffffffffffffff16815260200190815260200160002060006101000a81549060ff02191690555050565b600080600360003373ffffffffffffffffffffffffffffffffffffffff1673ffffffffffffffffffffffffffffffffffffffff16815260200190815260200160002060010180546106a390611f72565b905011156106b457600190506106b9565b600090505b90565b60606000600160003373ffffffffffffffffffffffffffffffffffffffff1673ffffffffffffffffffffffffffffffffffffffff168152602001908152602001600020805461070a90611f72565b80601f016020809104026020016040519081016040528092919081815260200182805461073690611f72565b80156107835780601f1061075857610100808354040283529160200191610783565b820191906000526020600020905b81548152906001019060200180831161076657829003601f168201915b5050505050905060028160405161079a919061225d565b908152602001604051809103902060070180546107b690611f72565b80601f01602080910402602001604051908101604052809291908181526020018280546107e290611f72565b801561082f5780601f106108045761010080835404028352916020019161082f565b820191906000526020600020905b81548152906001019060200180831161081257829003601f168201915b505050505091505090565b600080600160008573ffffffffffffffffffffffffffffffffffffffff1673ffffffffffffffffffffffffffffffffffffffff168152602001908152602001600020805461088790611f72565b80601f01602080910402602001604051908101604052809291908181526020018280546108b390611f72565b80156109005780601f106108d557610100808354040283529160200191610900565b820191906000526020600020905b8154815290600101906020018083116108e357829003601f168201915b505050505090506000600160003373ffffffffffffffffffffffffffffffffffffffff1673ffffffffffffffffffffffffffffffffffffffff168152602001908152602001600020805461095390611f72565b905011801561099d57508280519060200120600282604051610975919061225d565b9081526020016040518091039020600701604051610993919061238e565b6040518091039020145b156109ac5760019150506109b2565b60009150505b92915050565b6060600360003373ffffffffffffffffffffffffffffffffffffffff1673ffffffffffffffffffffffffffffffffffffffff1681526020019081526020016000206005018054610a0790611f72565b80601f0160208091040260200160405190810160405280929190818152602001828054610a3390611f72565b8015610a805780601f10610a5557610100808354040283529160200191610a80565b820191906000526020600020905b815481529060010190602001808311610a6357829003601f168201915b5050505050905090565b60008273ffffffffffffffffffffffffffffffffffffffff16600360008573ffffffffffffffffffffffffffffffffffffffff1673ffffffffffffffffffffffffffffffffffffffff16815260200190815260200160002060000160009054906101000a900473ffffffffffffffffffffffffffffffffffffffff1673ffffffffffffffffffffffffffffffffffffffff16148015610b8557508180519060200120600360008573ffffffffffffffffffffffffffffffffffffffff1673ffffffffffffffffffffffffffffffffffffffff168152602001908152602001600020600501604051610b7b919061238e565b6040518091039020145b15610b935760019050610b98565b600090505b92915050565b6060600282604051610bb0919061225d565b90815260200160405180910390206002016000018054610bcf90611f72565b80601f0160208091040260200160405190810160405280929190818152602001828054610bfb90611f72565b8015610c485780601f10610c1d57610100808354040283529160200191610c48565b820191906000526020600020905b815481529060010190602001808311610c2b57829003601f168201915b50505050509050919050565b3373ffffffffffffffffffffffffffffffffffffffff16600360003373ffffffffffffffffffffffffffffffffffffffff1673ffffffffffffffffffffffffffffffffffffffff16815260200190815260200160002060000160009054906101000a900473ffffffffffffffffffffffffffffffffffffffff1673ffffffffffffffffffffffffffffffffffffffff1614610cee57600080fd5b6000600283604051610d00919061225d565b9081526020016040518091039020600501541115610dd557600282604051610d28919061225d565b90815260200160405180910390206005016000815480929190610d4a906123a5565b91905055506001600483604051610d61919061225d565b9081526020016040518091039020600083815260200190815260200160002060003373ffffffffffffffffffffffffffffffffffffffff1673ffffffffffffffffffffffffffffffffffffffff16815260200190815260200160002060006101000a81548160ff0219169083151502179055505b5050565b60006002600160003373ffffffffffffffffffffffffffffffffffffffff1673ffffffffffffffffffffffffffffffffffffffff168152602001908152602001600020604051610e299190612451565b908152602001604051809103902060080160006101000a81548160ff021916908315150217905550565b610e5b6116d2565b600060058381548110610e7157610e70612468565b5b906000526020600020018054610e8690611f72565b80601f0160208091040260200160405190810160405280929190818152602001828054610eb290611f72565b8015610eff5780601f10610ed457610100808354040283529160200191610eff565b820191906000526020600020905b815481529060010190602001808311610ee257829003601f168201915b50505050509050600281604051610f16919061225d565b908152602001604051809103902060080160009054906101000a900460ff16156112df57600281604051610f4a919061225d565b9081526020016040518091039020604051806101000160405290816000820160009054906101000a900473ffffffffffffffffffffffffffffffffffffffff1673ffffffffffffffffffffffffffffffffffffffff1673ffffffffffffffffffffffffffffffffffffffff1681526020016001820154815260200160028201604051806040016040529081600082018054610fe490611f72565b80601f016020809104026020016040519081016040528092919081815260200182805461101090611f72565b801561105d5780601f106110325761010080835404028352916020019161105d565b820191906000526020600020905b81548152906001019060200180831161104057829003601f168201915b5050505050815260200160018201805461107690611f72565b80601f01602080910402602001604051908101604052809291908181526020018280546110a290611f72565b80156110ef5780601f106110c4576101008083540402835291602001916110ef565b820191906000526020600020905b8154815290600101906020018083116110d257829003601f168201915b505050505081525050815260200160048201805461110c90611f72565b80601f016020809104026020016040519081016040528092919081815260200182805461113890611f72565b80156111855780601f1061115a57610100808354040283529160200191611185565b820191906000526020600020905b81548152906001019060200180831161116857829003601f168201915b50505050508152602001600582015481526020016006820180546111a890611f72565b80601f01602080910402602001604051908101604052809291908181526020018280546111d490611f72565b80156112215780601f106111f657610100808354040283529160200191611221565b820191906000526020600020905b81548152906001019060200180831161120457829003601f168201915b5050505050815260200160078201805461123a90611f72565b80601f016020809104026020016040519081016040528092919081815260200182805461126690611f72565b80156112b35780601f10611288576101008083540402835291602001916112b3565b820191906000526020600020905b81548152906001019060200180831161129657829003601f168201915b505050505081526020016008820160009054906101000a900460ff161515151581525050915050611435565b60006040518061010001604052803373ffffffffffffffffffffffffffffffffffffffff1681526020016000815260200160405180604001604052806040518060400160405280600381526020017f6c6174000000000000000000000000000000000000000000000000000000000081525081526020016040518060400160405280600481526020017f6c6f6e670000000000000000000000000000000000000000000000000000000081525081525081526020016040518060400160405280600a81526020017f6c6f6341646472657373000000000000000000000000000000000000000000008152508152602001600081526020016040518060200160405280600081525081526020016040518060400160405280600481526020017f7061737300000000000000000000000000000000000000000000000000000000815250815260200160011515815250905080925050505b919050565b600080600160003373ffffffffffffffffffffffffffffffffffffffff1673ffffffffffffffffffffffffffffffffffffffff168152602001908152602001600020805461148790611f72565b90501115611498576001905061149d565b600090505b90565b60006040518060a001604052803373ffffffffffffffffffffffffffffffffffffffff168152602001878152602001868152602001604051806040016040528087815260200186815250815260200183815250905080600360003373ffffffffffffffffffffffffffffffffffffffff1673ffffffffffffffffffffffffffffffffffffffff16815260200190815260200160002060008201518160000160006101000a81548173ffffffffffffffffffffffffffffffffffffffff021916908373ffffffffffffffffffffffffffffffffffffffff1602179055506020820151816001019081611591919061214f565b5060408201518160020190816115a7919061214f565b5060608201518160030160008201518160000190816115c6919061214f565b5060208201518160010190816115dc919061214f565b50505060808201518160050190816115f4919061214f565b50905050505050505050565b6060600360003373ffffffffffffffffffffffffffffffffffffffff1673ffffffffffffffffffffffffffffffffffffffff168152602001908152602001600020600101805461164f90611f72565b80601f016020809104026020016040519081016040528092919081815260200182805461167b90611f72565b80156116c85780601f1061169d576101008083540402835291602001916116c8565b820191906000526020600020905b8154815290600101906020018083116116ab57829003601f168201915b5050505050905090565b604051806101000160405280600073ffffffffffffffffffffffffffffffffffffffff1681526020016000815260200161170a611735565b8152602001606081526020016000815260200160608152602001606081526020016000151581525090565b604051806040016040528060608152602001606081525090565b6000819050919050565b6117628161174f565b82525050565b600060208201905061177d6000830184611759565b92915050565b6000604051905090565b600080fd5b600080fd5b6117a08161174f565b81146117ab57600080fd5b50565b6000813590506117bd81611797565b92915050565b600080fd5b600080fd5b6000601f19601f8301169050919050565b7f4e487b7100000000000000000000000000000000000000000000000000000000600052604160045260246000fd5b611816826117cd565b810181811067ffffffffffffffff82111715611835576118346117de565b5b80604052505050565b6000611848611783565b9050611854828261180d565b919050565b600067ffffffffffffffff821115611874576118736117de565b5b61187d826117cd565b9050602081019050919050565b82818337600083830152505050565b60006118ac6118a784611859565b61183e565b9050828152602081018484840111156118c8576118c76117c8565b5b6118d384828561188a565b509392505050565b600082601f8301126118f0576118ef6117c3565b5b8135611900848260208601611899565b91505092915050565b600080600080600080600060e0888a0312156119285761192761178d565b5b60006119368a828b016117ae565b975050602088013567ffffffffffffffff81111561195757611956611792565b5b6119638a828b016118db565b965050604088013567ffffffffffffffff81111561198457611983611792565b5b6119908a828b016118db565b955050606088013567ffffffffffffffff8111156119b1576119b0611792565b5b6119bd8a828b016118db565b94505060806119ce8a828b016117ae565b93505060a088013567ffffffffffffffff8111156119ef576119ee611792565b5b6119fb8a828b016118db565b92505060c088013567ffffffffffffffff811115611a1c57611a1b611792565b5b611a288a828b016118db565b91505092959891949750929550565b60008060408385031215611a4e57611a4d61178d565b5b600083013567ffffffffffffffff811115611a6c57611a6b611792565b5b611a78858286016118db565b9250506020611a89858286016117ae565b9150509250929050565b60008115159050919050565b611aa881611a93565b82525050565b6000602082019050611ac36000830184611a9f565b92915050565b600081519050919050565b600082825260208201905092915050565b60005b83811015611b03578082015181840152602081019050611ae8565b60008484015250505050565b6000611b1a82611ac9565b611b248185611ad4565b9350611b34818560208601611ae5565b611b3d816117cd565b840191505092915050565b60006020820190508181036000830152611b628184611b0f565b905092915050565b600073ffffffffffffffffffffffffffffffffffffffff82169050919050565b6000611b9582611b6a565b9050919050565b611ba581611b8a565b8114611bb057600080fd5b50565b600081359050611bc281611b9c565b92915050565b60008060408385031215611bdf57611bde61178d565b5b6000611bed85828601611bb3565b925050602083013567ffffffffffffffff811115611c0e57611c0d611792565b5b611c1a858286016118db565b9150509250929050565b600060208284031215611c3a57611c3961178d565b5b600082013567ffffffffffffffff811115611c5857611c57611792565b5b611c64848285016118db565b91505092915050565b600060208284031215611c8357611c8261178d565b5b6000611c91848285016117ae565b91505092915050565b611ca381611b8a565b82525050565b611cb28161174f565b82525050565b600082825260208201905092915050565b6000611cd482611ac9565b611cde8185611cb8565b9350611cee818560208601611ae5565b611cf7816117cd565b840191505092915050565b60006040830160008301518482036000860152611d1f8282611cc9565b91505060208301518482036020860152611d398282611cc9565b9150508091505092915050565b611d4f81611a93565b82525050565b600061010083016000830151611d6e6000860182611c9a565b506020830151611d816020860182611ca9565b5060408301518482036040860152611d998282611d02565b91505060608301518482036060860152611db38282611cc9565b9150506080830151611dc86080860182611ca9565b5060a083015184820360a0860152611de08282611cc9565b91505060c083015184820360c0860152611dfa8282611cc9565b91505060e0830151611e0f60e0860182611d46565b508091505092915050565b60006020820190508181036000830152611e348184611d55565b905092915050565b600080600080600060a08688031215611e5857611e5761178d565b5b600086013567ffffffffffffffff811115611e7657611e75611792565b5b611e82888289016118db565b955050602086013567ffffffffffffffff811115611ea357611ea2611792565b5b611eaf888289016118db565b945050604086013567ffffffffffffffff811115611ed057611ecf611792565b5b611edc888289016118db565b935050606086013567ffffffffffffffff811115611efd57611efc611792565b5b611f09888289016118db565b925050608086013567ffffffffffffffff811115611f2a57611f29611792565b5b611f36888289016118db565b9150509295509295909350565b7f4e487b7100000000000000000000000000000000000000000000000000000000600052602260045260246000fd5b60006002820490506001821680611f8a57607f821691505b602082108103611f9d57611f9c611f43565b5b50919050565b60008190508160005260206000209050919050565b60006020601f8301049050919050565b600082821b905092915050565b6000600883026120057fffffffffffffffffffffffffffffffffffffffffffffffffffffffffffffffff82611fc8565b61200f8683611fc8565b95508019841693508086168417925050509392505050565b6000819050919050565b600061204c6120476120428461174f565b612027565b61174f565b9050919050565b6000819050919050565b61206683612031565b61207a61207282612053565b848454611fd5565b825550505050565b600090565b61208f612082565b61209a81848461205d565b505050565b5b818110156120be576120b3600082612087565b6001810190506120a0565b5050565b601f821115612103576120d481611fa3565b6120dd84611fb8565b810160208510156120ec578190505b6121006120f885611fb8565b83018261209f565b50505b505050565b600082821c905092915050565b600061212660001984600802612108565b1980831691505092915050565b600061213f8383612115565b9150826002028217905092915050565b61215882611ac9565b67ffffffffffffffff811115612171576121706117de565b5b61217b8254611f72565b6121868282856120c2565b600060209050601f8311600181146121b957600084156121a7578287015190505b6121b18582612133565b865550612219565b601f1984166121c786611fa3565b60005b828110156121ef578489015182556001820191506020850194506020810190506121ca565b8683101561220c5784890151612208601f891682612115565b8355505b6001600288020188555050505b505050505050565b600081905092915050565b600061223782611ac9565b6122418185612221565b9350612251818560208601611ae5565b80840191505092915050565b6000612269828461222c565b915081905092915050565b7f4e487b7100000000000000000000000000000000000000000000000000000000600052601160045260246000fd5b60006122ae8261174f565b91507fffffffffffffffffffffffffffffffffffffffffffffffffffffffffffffffff82036122e0576122df612274565b5b600182019050919050565b600081905092915050565b60008190508160005260206000209050919050565b6000815461231881611f72565b61232281866122eb565b9450600182166000811461233d576001811461235257612385565b60ff1983168652811515820286019350612385565b61235b856122f6565b60005b8381101561237d5781548189015260018201915060208101905061235e565b838801955050505b50505092915050565b600061239a828461230b565b915081905092915050565b60006123b08261174f565b9150600082036123c3576123c2612274565b5b600182039050919050565b600081546123db81611f72565b6123e58186612221565b94506001821660008114612400576001811461241557612448565b60ff1983168652811515820286019350612448565b61241e85611fa3565b60005b8381101561244057815481890152600182019150602081019050612421565b838801955050505b50505092915050565b600061245d82846123ce565b915081905092915050565b7f4e487b7100000000000000000000000000000000000000000000000000000000600052603260045260246000fdfea26469706673582212207eea1879e9891b9a361b83329dd977af1d57ed6cb35395507e90c0f2b3e8dc3064736f6c63430008120033",
  "immutableReferences": {},
  "source": "pragma solidity >=0.4.26 <0.9.0;\r\npragma experimental ABIEncoderV2;\r\n// SPDX-License-Identifier: UNLICENSED\r\ncontract ParkingDApp {\r\n    \r\n    struct LocationCoordinates{\r\n        string lattitude;\r\n        string longitude;\r\n    }\r\n        \r\n    struct ParkingSpot{\r\n        address owner;\r\n        uint ratePerHour;\r\n        LocationCoordinates coordinates;\r\n        string locationAddress;\r\n        uint availabileSpots;\r\n        string parkingSpotUniqueId;\r\n        string password;\r\n        bool isAvailable;\r\n    }\r\n    \r\n    struct User{\r\n        address driver;\r\n        string carNo;\r\n        string mobileNo;\r\n        LocationCoordinates liveLocation;\r\n        string password;\r\n    }\r\n    \r\n    uint radiusForNearbySpots;\r\n    // uint id_no =1;\r\n    constructor() {\r\n        radiusForNearbySpots = 10;\r\n    }\r\n    \r\n    //mappings\r\n    mapping(address=>string) parkingSpotOwnerUIDMapping;\r\n    mapping(string=>ParkingSpot) parkingSpotsList;\r\n    mapping(address=>User) UsersList;\r\n    mapping(string=>mapping(uint=>mapping(address=>bool))) bookingLedger;\r\n    \r\n    // array\r\n    string [] parkingSpotUIDList;\r\n    \r\n    modifier onlyRegisteredUser(){\r\n        require(UsersList[msg.sender].driver == msg.sender);\r\n        _;\r\n    }\r\n    \r\n    modifier onlyParkingSpotOwner(){\r\n        require(parkingSpotsList[parkingSpotOwnerUIDMapping[msg.sender]].owner == msg.sender);\r\n        _;\r\n    }\r\n    \r\n    function registerNewParkingSpot(uint cost, string memory lat, string memory long, \r\n    string memory locAddress, uint count, string memory UIDNo, string memory pass) public {\r\n        ParkingSpot memory newSpot = ParkingSpot({\r\n            owner:msg.sender,\r\n            ratePerHour:cost,\r\n            coordinates:LocationCoordinates({\r\n                lattitude:lat,\r\n                longitude:long\r\n            }),\r\n            locationAddress:locAddress,\r\n            availabileSpots:count,\r\n            parkingSpotUniqueId:UIDNo,\r\n            password:pass,\r\n            isAvailable: true\r\n        });\r\n        parkingSpotOwnerUIDMapping[msg.sender] = UIDNo;\r\n        parkingSpotsList[UIDNo] = newSpot;\r\n        parkingSpotUIDList.push(UIDNo);\r\n    }\r\n    \r\n    function registerNewUser(string memory carNumber, string memory mobile, string memory lat, string memory long, string memory pass) public {\r\n        User memory newUser = User({\r\n            driver: msg.sender,\r\n            carNo: carNumber,\r\n            mobileNo: mobile,\r\n            liveLocation: LocationCoordinates({\r\n                lattitude:lat,\r\n                longitude:long\r\n            }),\r\n            password:pass\r\n        });\r\n        UsersList[msg.sender] = newUser;\r\n    }\r\n    \r\n    function bookParkingSpot(string memory ParkingId, uint time) public onlyRegisteredUser {\r\n        if(parkingSpotsList[ParkingId].availabileSpots>0){\r\n            parkingSpotsList[ParkingId].availabileSpots--;\r\n            bookingLedger[ParkingId][time][msg.sender] = true;\r\n        }\r\n    }\r\n    \r\n    function endBooking(string memory ParkingId,uint time) public onlyRegisteredUser {\r\n        parkingSpotsList[ParkingId].availabileSpots++;\r\n        delete bookingLedger[ParkingId][time][msg.sender];\r\n    }\r\n    \r\n    function checkAlreadyRegisteredParkingSpot() public view returns(bool){\r\n        if (bytes(parkingSpotOwnerUIDMapping[msg.sender]).length>0) {\r\n            return true;\r\n        }\r\n        return false;\r\n    }\r\n\r\n    function getSpotOwnerCred() public view returns(string memory) {\r\n        string memory spot_id = parkingSpotOwnerUIDMapping[msg.sender];\r\n        return parkingSpotsList[spot_id].password;\r\n    }\r\n    \r\n    function checkAlreadyRegisteredUser() public view returns(bool){\r\n        if (bytes(UsersList[msg.sender].carNo).length>0) {\r\n            return true;\r\n        }\r\n        return false;\r\n    }\r\n\r\n    function signInParkingSpot(address owner, string memory password) public view returns(bool) {\r\n        string memory parkingSpotId = parkingSpotOwnerUIDMapping[owner];\r\n        if(bytes(parkingSpotOwnerUIDMapping[msg.sender]).length>0 && keccak256(bytes(parkingSpotsList[parkingSpotId].password)) == keccak256(bytes(password))) {\r\n            return true;\r\n        }\r\n        return false;\r\n    }\r\n    \r\n    function getUserCred() public view returns(string memory) {\r\n        return UsersList[msg.sender].password;\r\n    }\r\n\r\n    function UserData() public view returns(string memory) {\r\n        return UsersList[msg.sender].carNo;\r\n    }\r\n    \r\n    function spotData(string memory id) public view returns(string memory) {\r\n        return parkingSpotsList[id].coordinates.lattitude;\r\n    }\r\n\r\n    function signInUser(address owner, string memory password) public view returns(bool) {\r\n        if(UsersList[owner].driver == owner && keccak256(bytes(UsersList[owner].password)) == keccak256(bytes(password))) {\r\n            return true;\r\n        }\r\n        return false; \r\n    }\r\n    \r\n    function getParkingSpotsCount() public view returns (uint) {\r\n        return parkingSpotUIDList.length;\r\n    }\r\n    \r\n    function getLocations(uint idx) public view returns (ParkingSpot memory) {\r\n        string memory UIDNo = parkingSpotUIDList[idx];\r\n        if(parkingSpotsList[UIDNo].isAvailable)\r\n            return parkingSpotsList[UIDNo];\r\n            \r\n        ParkingSpot memory newSpot = ParkingSpot({\r\n            owner:msg.sender,\r\n            ratePerHour:0,\r\n            coordinates:LocationCoordinates({\r\n                lattitude:\"lat\",\r\n                longitude:\"long\"\r\n            }),\r\n            locationAddress:\"locAddress\",\r\n            availabileSpots:0,\r\n            parkingSpotUniqueId:\"\",\r\n            password:\"pass\",\r\n            isAvailable: true\r\n        });\r\n        return newSpot;\r\n    }\r\n    \r\n    function deleteParkingSpot() public {\r\n        parkingSpotsList[parkingSpotOwnerUIDMapping[msg.sender]].isAvailable = false;\r\n    }\r\n    \r\n    // function getParkingSize() public view returns(uint) {\r\n    //   return parkingList.length;\r\n    // }\r\n    \r\n}",
  "sourcePath": "C:\\Users\\Priyanshu Gupta\\project\\ParkingFinal\\ethereum\\contracts\\parking.sol",
  "compiler": {
    "name": "solc",
    "version": "0.8.18+commit.87f61d96.Emscripten.clang"
  },
  "schemaVersion": "3.4.11",
  "updatedAt": "2023-03-09T11:47:34.961Z",
  "networkType": "ethereum",
  "devdoc": {
    "kind": "dev",
    "methods": {},
    "version": 1
  },
  "userdoc": {
    "kind": "user",
    "methods": {},
    "version": 1
  }
}